:100000000C942A000C9447000C9447000C94470071
:100010000C9447000C9447000C9447000C94470044
:100020000C9447000C9447000C9447000C94470034
:100030000C9447000C9447000C9447000C94470024
:100040000C9447000C9447000C9447000C94470014
:100050000C94470011241FBECFE5D8E0DEBFCDBF12
:1000600010E0A0E6B0E0E4E1F7E502C005900D92F3
:10007000AE3FB107D9F711E0AEEFB0E001C01D927D
:10008000A030B107E1F70E9401210C94882B0C9459
:100090000000EF92FF920F931F937B018C0120E0F1
:1000A00030E040E05FE40E94F50388238CF0C80153
:1000B000B70120E030E040E05FE40E94C1010E940F
:1000C00055049B01AC01205030404040504806C0D0
:1000D000C801B7010E9455049B01AC01B901CA01D6
:1000E0001F910F91FF90EF900895A0E0B0E0EBE733
:1000F000F0E00C94512BDC012B01FA019C91923021
:1001000008F439C1EB018881823008F433C194309E
:1001100069F4843009F02FC111969C91119789815F
:10012000981709F428C1ADEBB0E025C1843009F47B
:1001300021C18230A9F4923009F01DC19A01AD01AC
:1001400088E0EA010990AE01E90109929E0181501F
:10015000C1F7E201898111969C918923818308C1AD
:10016000923009F407C112962D903C901397EB0141
:100170008A819B811496AD90BD90CD90DC901797AD
:10018000EC80FD800E811F819101281B390BB90184
:1001900037FF04C066277727621B730B6032710537
:1001A0000CF061C0121613066CF537014801062EDB
:1001B00004C096948794779467940A94D2F721E0C8
:1001C00030E040E050E004C0220F331F441F551FB1
:1001D0006A95D2F721503040404050402E213F21B7
:1001E00040235123211531054105510521F021E01E
:1001F00030E040E050E079018A01E628F72808293C
:1002000019293CC0232BD1F1260E371E350146019A
:10021000062E04C096948794779467940A94D2F734
:1002200021E030E040E050E004C0220F331F441FC3
:10023000551F6A95D2F721503040404050402A2146
:100240003B214C215D21211531054105510521F04E
:1002500021E030E040E050E059016A01A628B728CB
:10026000C828D9280BC0821593052CF01C01AA249C
:10027000BB24650103C0EE24FF24870111969C91E5
:10028000D20111968C91981709F445C0992339F041
:10029000A80197012A193B094C095D0906C0A6016E
:1002A00095012E193F09400B510B57FD08C01182D3
:1002B0003382228224833583468357831DC081E0A5
:1002C00081833382228288279927DC01821B930B4A
:1002D000A40BB50B84839583A683B7830DC0220F2F
:1002E000331F441F551F24833583468357838281E0
:1002F000938101979383828324813581468157813D
:10030000DA01C9010197A109B1098F5F9F4FAF4F72
:10031000BF4328F30BC0918333822282EA0CFB1C7B
:100320000C1D1D1DE482F5820683178383E0808304
:10033000248135814681578157FF1AC0C901AA27F8
:1003400097FDA095BA2F81709070A070B0705695EF
:10035000479537952795822B932BA42BB52B848318
:100360009583A683B7838281938101969383828349
:10037000DF0101C0D201CD01CDB7DEB7E2E10C94BF
:100380006D2BA0E2B0E0E7ECF1E00C945D2B69830B
:100390007A838B839C832D833E834F835887E9E048
:1003A000EE2EF12CEC0EFD1ECE010196B7010E943F
:1003B0007E058E010F5E1F4FCE010596B8010E948B
:1003C0007E058A8991E089278A8BC701B801AE0131
:1003D000475E5F4F0E9475000E94A904A096E6E068
:1003E0000C94792BA0E2B0E0E8EFF1E00C945D2BE7
:1003F00069837A838B839C832D833E834F835887C5
:10040000F9E0EF2EF12CEC0EFD1ECE010196B701A6
:100410000E947E058E010F5E1F4FCE010596B8012A
:100420000E947E05C701B801AE01475E5F4F0E9482
:1004300075000E94A904A096E6E00C94792BA0E236
:10044000B0E0E5E2F2E00C94512B69837A838B8370
:100450009C832D833E834F835887CE010196BE0136
:10046000675F7F4F0E947E05CE010596BE016F5EDD
:100470007F4F0E947E059985923088F0898982306D
:10048000C8F0943019F4823051F404C0843029F457
:10049000923081F48DEB90E0C6C0923049F420E0B8
:1004A0009A858A89981321E02A87CE010996BBC0D4
:1004B000823049F420E09A858A89981321E02A8BBA
:1004C000CE014196B0C02D843E844F8458886D88FB
:1004D0007E888F88988CEE24FF248701AA24BB2471
:1004E000650140E050E060E070E0E0E0F0E0C10174
:1004F00081709070892BE9F0E60CF71C081D191D1E
:100500009A01AB012A0D3B1D4C1D5D1D80E090E062
:10051000A0E0B0E0E614F7040805190520F481E036
:1005200090E0A0E0B0E0BA01A901480F591F6A1F8E
:100530007B1FAA0CBB1CCC1CDD1C97FE08C081E0F5
:1005400090E0A0E0B0E0A82AB92ACA2ADB2A3196B6
:10055000E032F10549F0660C771C881C991C569412
:10056000479437942794C3CFFA85EA892B893C892D
:100570008B859C85280F391F2E5F3F4F17C0CA01FE
:1005800081709070892B61F016950795F794E79428
:1005900080E090E0A0E0B0E8E82AF92A0A2B1B2BC3
:1005A00076956795579547952F5F3F4F77FDE7CF36
:1005B0000CC0440F551F661F771F17FD4160EE0CDE
:1005C000FF1C001F111F21503040403090E05907A0
:1005D00090E0690790E4790760F32B8F3C8FDB0193
:1005E000CA018F779070A070B07080349105A1051A
:1005F000B10561F447FD0AC0E114F10401051105DC
:1006000029F0405C5F4F6F4F7F4F40781A8EFE1786
:1006100011F081E08A8F4D8F5E8F6F8F78A383E01A
:10062000898FCE0149960E94A904A096E2E10C941C
:100630006D2BA8E1B0E0EFE1F3E00C94592B698356
:100640007A838B839C832D833E834F835887B9E0C5
:10065000EB2EF12CEC0EFD1ECE010196B7010E948F
:100660007E058E010F5E1F4FCE010596B8010E94D8
:100670007E052985223008F47EC03989323010F495
:10068000B8017CC08A859A8989278A87243011F02D
:10069000223031F4231709F06EC06DEB70E06EC0AC
:1006A000343039F41D861E861F86188A1C861B86E8
:1006B00004C0323021F484E08987B7015FC02B8504
:1006C0003C858B899C89281B390B3C872B87ED84C3
:1006D000FE840F851889AD88BE88CF88D88CEA142F
:1006E000FB040C051D0540F4EE0CFF1C001F111F40
:1006F000215030403C872B8720E030E040E050E044
:1007000080E090E0A0E0B0E460E070E0EA14FB0478
:100710000C051D0540F0282B392B4A2B5B2BEA18C2
:10072000FB080C091D09B695A79597958795EE0CC2
:10073000FF1C001F111F6F5F7F4F6F31710531F775
:10074000DA01C9018F779070A070B0708034910584
:10075000A105B10561F427FD0AC0E114F10401050A
:10076000110529F0205C3F4F4F4F5F4F20782D87B8
:100770003E874F87588BBE01675F7F4FCB010E943A
:10078000A9046896EAE00C94752BA8E1B0E0EBECC4
:10079000F3E00C945D2B69837A838B839C832D8398
:1007A0003E834F83588789E0E82EF12CEC0EFD1E26
:1007B000CE010196B7010E947E058E010F5E1F4F8C
:1007C000CE010596B8010E947E058985823040F0F1
:1007D0008989823028F0C701B8010E94F60501C05E
:1007E0008FEF6896E6E00C94792BA8E1B0E0EBEF90
:1007F000F3E00C945D2B69837A838B839C832D8338
:100800003E834F83588789E0E82EF12CEC0EFD1EC5
:10081000CE010196B7010E947E058E010F5E1F4F2B
:10082000CE010596B8010E947E058985823040F090
:100830008989823028F0C701B8010E94F60501C0FD
:100840008FEF6896E6E00C94792BA8E1B0E0EBE23C
:10085000F4E00C945D2B69837A838B839C832D83D6
:100860003E834F83588789E0E82EF12CEC0EFD1E65
:10087000CE010196B7010E947E058E010F5E1F4FCB
:10088000CE010596B8010E947E058985823040F030
:100890008989823028F0C701B8010E94F60501C09D
:1008A00081E06896E6E00C94792BACE0B0E0EBE5F3
:1008B000F4E00C94612B69837A838B839C83CE0153
:1008C0000196BE016B5F7F4F0E947E058D81823055
:1008D00061F1823050F1843021F48E81882351F10E
:1008E0002EC02F81388537FD20C06E812F31310514
:1008F0001CF06623F9F023C08EE190E0821B930B7D
:1009000029853A854B855C8504C056954795379572
:1009100027958A95D2F76623B1F05095409530958A
:1009200021953F4F4F4F5F4F0EC020E030E040E039
:1009300050E009C02FEF3FEF4FEF5FE704C020E02A
:1009400030E040E050E8B901CA012C96E2E00C9496
:100950007D2BDF92EF92FF920F931F93FC01E480B7
:10096000F58006811781D1808081823048F480E053
:1009700090E0A0E1B0E0E82AF92A0A2B1B2BA5C0E1
:10098000843009F49FC0823021F4EE24FF248701D3
:1009900005C0E114F1040105110519F4E0E0F0E0EF
:1009A00096C0628173819FEF623879070CF05BC05B
:1009B00022E83FEF261B370B2A3131052CF020E0CF
:1009C00030E040E050E02AC0B801A701022E04C088
:1009D00076956795579547950A94D2F781E090E010
:1009E000A0E0B0E004C0880F991FAA1FBB1F2A9582
:1009F000D2F70197A109B1098E219F21A023B1232C
:100A00000097A105B10521F081E090E0A0E0B0E001
:100A10009A01AB01282B392B4A2B5B2BDA01C90138
:100A20008F779070A070B07080349105A105B105EA
:100A300039F427FF09C0205C3F4F4F4F5F4F04C080
:100A4000215C3F4F4F4F5F4FE0E0F0E02030A0E0EF
:100A50003A07A0E04A07A0E45A0710F0E1E0F0E00E
:100A600079018A0127C06038710564F5FB01E158FE
:100A7000FF4FD801C7018F779070A070B07080349D
:100A80009105A105B10539F4E7FE0DC080E490E0C1
:100A9000A0E0B0E004C08FE390E0A0E0B0E0E80E9A
:100AA000F91E0A1F1B1F17FF05C016950795F7941F
:100AB000E794319687E016950795F794E7948A9521
:100AC000D1F705C0EE24FF248701EFEFF0E06E2F91
:100AD000679566276795902F9F77D794DD24D794E5
:100AE0008E2F8695492F462B582F5D29B701CA01B5
:100AF0001F910F91FF90EF90DF900895FC01DB01B3
:100B0000408151812281622F6F7770E0221F22275E
:100B1000221F9381892F880F822B282F30E0991F65
:100B20009927991F11969C93119721153105A9F5C5
:100B3000411551056105710511F482E037C082E865
:100B40009FEF13969C938E9312979A01AB0167E0E7
:100B5000220F331F441F551F6A95D1F783E08C93F2
:100B60000DC0220F331F441F551F12968D919C916B
:100B70001397019713969C938E931297203080E0E1
:100B8000380780E0480780E4580758F314962D93FF
:100B90003D934D935C93179708952F3F310579F45A
:100BA000411551056105710519F484E08C93089590
:100BB00064FF03C081E08C9312C01C9210C02F57B9
:100BC000304013963C932E93129783E08C9387E0EA
:100BD000440F551F661F771F8A95D1F770641496CE
:100BE0004D935D936D937C93179708951F93DC014C
:100BF000FB019C91923008F447C08081823008F458
:100C000043C0943051F411961C91843099F5818140
:100C1000682F70E0611B71093FC0843021F0923071
:100C200031F48230B9F18181882389F12DC0119688
:100C30001C9111978230F1F081811817D9F4129626
:100C40002D913C911397828193818217930794F0A1
:100C500028173907BCF014968D919D910D90BC9189
:100C6000A02D2481358146815781281739074A07ED
:100C70005B0718F4112341F00AC082179307A407F9
:100C8000B50740F4112319F061E070E005C06FEF83
:100C90007FEF02C060E070E0CB011F910895DF9309
:100CA000CF9300D000D0CDB7DEB789836A83898126
:100CB000282F30E03C832B838B819C8181309105F0
:100CC000D1F02B813C81223031052CF48B819C8129
:100CD000009761F01EC02B813C812230310581F0EC
:100CE0008B819C818330910581F013C0EAE3F0E0B1
:100CF0008A8180830EC0E7E3F0E08A81808309C0A7
:100D0000E4E3F0E08A81808304C0E1E3F0E08A81DB
:100D100080830F900F900F900F90CF91DF910895E7
:100D2000DF93CF9300D000D0CDB7DEB789836A833D
:100D30008981282F30E03C832B838B819C818130FB
:100D40009105D1F02B813C81223031052CF48B812F
:100D50009C81009761F01EC02B813C8122303105BF
:100D600081F08B819C818330910581F013C0EBE38E
:100D7000F0E08A8180830EC0E8E3F0E08A8180831E
:100D800009C0E5E3F0E08A81808304C0E2E3F0E09B
:100D90008A8180830F900F900F900F90CF91DF91F9
:100DA0000895DF93CF93CDB7DEB727970FB6F894AA
:100DB000DEBF0FBECDBF89836A834B838B818823BF
:100DC00009F46FC08981282F30E03F832E838E8104
:100DD0009F818130910549F12E813F81223031057B
:100DE0002CF48E819F81009761F0CEC02E813F81CF
:100DF0002230310571F18E819F8183309105E9F1B7
:100E0000C3C0AAE3B0E0EAE3F0E08081482F8A8122
:100E1000282F30E081E090E0022E02C0880F991F59
:100E20000A94E2F7842B8C93AFC0A7E3B0E0E7E32A
:100E3000F0E08081482F8A81282F30E081E090E027
:100E4000022E02C0880F991F0A94E2F7842B8C931C
:100E50009BC0A4E3B0E0E4E3F0E08081482F8A8106
:100E6000282F30E081E090E0022E02C0880F991F09
:100E70000A94E2F7842B8C9387C0A1E3B0E0E1E30E
:100E8000F0E08081482F8A81282F30E081E090E0D7
:100E9000022E02C0880F991F0A94E2F7842B8C93CC
:100EA00073C08981282F30E03D832C838C819D8104
:100EB0008130910559F12C813D81223031052CF48E
:100EC0008C819D81009769F05FC02C813D8122302B
:100ED000310589F18C819D818330910509F440C0F1
:100EE00053C0AAE3B0E0EAE3F0E08081482F8A81B2
:100EF000282F30E081E090E0022E02C0880F991F79
:100F00000A94E2F7809584238C933EC0A7E3B0E077
:100F1000E7E3F0E08081482F8A81282F30E081E0EC
:100F200090E0022E02C0880F991F0A94E2F7809584
:100F300084238C9329C0A4E3B0E0E4E3F0E0808153
:100F4000482F8A81282F30E081E090E0022E02C0F5
:100F5000880F991F0A94E2F7809584238C9314C01C
:100F6000A1E3B0E0E1E3F0E08081482F8A81282FFF
:100F700030E081E090E0022E02C0880F991F0A94B1
:100F8000E2F7809584238C9327960FB6F894DEBF02
:100F90000FBECDBFCF91DF910895DF93CF9300D0E7
:100FA00000D00F92CDB7DEB78A836B8319828A8116
:100FB000282F30E03D832C834C815D8141305105E9
:100FC00041F18C819D818230910534F42C813D81E9
:100FD0002115310561F052C04C815D8142305105CF
:100FE00051F18C819D8183309105B9F147C0E9E3CE
:100FF000F0E08081282F30E08B81882F90E0A901DC
:1010000002C0559547958A95E2F7CA018170898398
:1010100035C0E6E3F0E08081282F30E08B81882F17
:1010200090E0A90102C0559547958A95E2F7CA015B
:101030008170898323C0E3E3F0E08081282F30E0D2
:101040008B81882F90E0A90102C0559547958A951C
:10105000E2F7CA018170898311C0E0E3F0E080818A
:10106000282F30E08B81882F90E0A90102C0559590
:1010700047958A95E2F7CA018170898389810F902B
:101080000F900F900F900F90CF91DF910895DF9305
:10109000CF93CDB7DEB727970FB6F894DEBF0FBE5C
:1010A000CDBF89836A834B838B81813009F06FC008
:1010B0008981282F30E03F832E838E819F8181306C
:1010C000910549F12E813F81223031052CF48E812A
:1010D0009F81009761F0CEC02E813F812230310583
:1010E00071F18E819F8183309105E9F1C3C0ABE33B
:1010F000B0E0EBE3F0E08081482F8A81282F30E0D8
:1011000081E090E0022E02C0880F991F0A94E2F756
:10111000842B8C93AFC0A8E3B0E0E8E3F0E08081DB
:10112000482F8A81282F30E081E090E0022E02C013
:10113000880F991F0A94E2F7842B8C939BC0A5E338
:10114000B0E0E5E3F0E08081482F8A81282F30E08D
:1011500081E090E0022E02C0880F991F0A94E2F706
:10116000842B8C9387C0A2E3B0E0E2E3F0E08081BF
:10117000482F8A81282F30E081E090E0022E02C0C3
:10118000880F991F0A94E2F7842B8C9373C089818E
:10119000282F30E03D832C838C819D818130910507
:1011A00059F12C813D81223031052CF48C819D81B7
:1011B000009769F05FC02C813D812230310589F1B3
:1011C0008C819D818330910509F440C053C0ABE30D
:1011D000B0E0EBE3F0E08081482F8A81282F30E0F7
:1011E00081E090E0022E02C0880F991F0A94E2F776
:1011F000809584238C933EC0A8E3B0E0E8E3F0E060
:101200008081482F8A81282F30E081E090E0022EF3
:1012100002C0880F991F0A94E2F7809584238C936B
:1012200029C0A5E3B0E0E5E3F0E08081482F8A81A2
:10123000282F30E081E090E0022E02C0880F991F35
:101240000A94E2F7809584238C9314C0A2E3B0E063
:10125000E2E3F0E08081482F8A81282F30E081E0AE
:1012600090E0022E02C0880F991F0A94E2F7809541
:1012700084238C9327960FB6F894DEBF0FBECDBFA4
:10128000CF91DF910895DF93CF9300D000D0CDB7F9
:10129000DEB789836A838981282F30E03C832B83E2
:1012A0008B819C818130910549F12B813C812230D9
:1012B00031052CF48B819C81009761F05AC02B8101
:1012C0003C812230310571F18B819C818330910505
:1012D000E9F14FC0ABE3B0E0EBE3F0E08081482FF1
:1012E0008A81282F30E081E090E0022E02C0880F32
:1012F000991F0A94E2F784278C933BC0A8E3B0E0DF
:10130000E8E3F0E08081482F8A81282F30E081E0F7
:1013100090E0022E02C0880F991F0A94E2F78427FA
:101320008C9327C0A5E3B0E0E5E3F0E08081482F8F
:101330008A81282F30E081E090E0022E02C0880FE1
:10134000991F0A94E2F784278C9313C0A2E3B0E0BC
:10135000E2E3F0E08081482F8A81282F30E081E0AD
:1013600090E0022E02C0880F991F0A94E2F78427AA
:101370008C930F900F900F900F90CF91DF91089565
:10138000DF93CF93CDB7DEB7AFE5B0E0EFE5F0E0A8
:10139000808180688C93CF91DF910895DF93CF9304
:1013A000CDB7DEB7AFE5B0E0EFE5F0E080818F7755
:1013B0008C93CF91DF910895DF93CF930F92CDB7A8
:1013C000DEB7198233C08981882F90E0FC01EB538E
:1013D000FF4F908181E0692F40E00E94D106898112
:1013E000882F90E0FC01EB53FF4F908181E0692F43
:1013F00041E00E9447088981882F90E0FC01E75373
:10140000FF4F908181E0692F41E00E94D1068981E0
:10141000882F90E0FC01E753FF4F908181E0692F16
:1014200041E00E94470889818F5F898389818430E8
:1014300050F20F90CF91DF910895DF93CF9300D0BA
:101440000F92CDB7DEB71A824FC08A81882F90E005
:10145000FC01E753FF4F908181E0692F40E00E943B
:10146000470819822FC08981882F90E0FC01EB5337
:10147000FF4F908181E0692F0E94CD078823F9F406
:101480008A81882F90E0FC01E753FF4F908181E033
:10149000692F41E00E9447088981482F50E08A81E6
:1014A000282F30E0CA01880F991F880F991F820FDB
:1014B000931FFC01E353FF4F80818B831BC0898105
:1014C0008F5F89838981843070F28A81882F90E0D0
:1014D000FC01E753FF4F908181E0692F41E00E94BA
:1014E00047088A818F5F8A838A81843008F4ADCF70
:1014F0008FEF8B838B810F900F900F90CF91DF91A7
:101500000895DF93CF93CDB7DEB7E0970FB6F89489
:10151000DEBF0FBECDBFAE01455E5F4F5DA74CA7DE
:101520008DEE90E09FA78EA790E198ABEEA5FFA56A
:1015300000804EA55FA54F5F5F4F5FA74EA7ECA54C
:10154000FDA500824CA55DA54F5F5F4F5DA74CA731
:1015500058A9515058AB88A9882341F71A8E06C163
:10156000A8E3B0E0E8E3F0E080818F60482F8A8D47
:10157000282F30E081E090E002C0880F991F2A9563
:10158000E2F7809584238C9380E090E0A0EAB0E4B9
:101590008D8B9E8BAF8BB88F6D897E898F89988D4F
:1015A0002BEA3AEA4AE250E40E941F02DC01CB0136
:1015B000898B9A8BAB8BBC8B69897A898B899C8947
:1015C00020E030E040E85FE30E94250488231CF41B
:1015D00081E0888B91C069897A898B899C8920E018
:1015E00030E04FE753E40E94C50318160CF07BC0AF
:1015F0006D897E898F89988D20E030E04AE754E438
:101600000E941903DC01CB018C879D87AE87BF87C1
:101610006C857D858E859F8520E030E04AEF54E41F
:101620000E941F02DC01CB0188879987AA87BB87AC
:10163000688579858A859B8520E030E040E85FE316
:101640000E94250488232CF481E090E09F838E8300
:101650003FC0688579858A859B8520E03FEF4FE70D
:1016600057E40E94C50318164CF56C857D858E8560
:101670009F8520E030E040E251E40E941F02DC013F
:10168000CB01BC01CD010E944900DC01CB019F834D
:101690008E830FC088EC90E09D838C838C819D812C
:1016A0000197F1F79D838C838E819F8101979F83A2
:1016B0008E838E819F81009769F724C06885798524
:1016C0008A859B850E944900DC01CB019F838E8324
:1016D0008E819F819B838A838A819B810197F1F709
:1016E0009B838A830FC069897A898B899C890E9430
:1016F0004900DC01CB01888B8889898389818A959F
:10170000F1F78983198E2CC0E6E3F0E08081282F61
:1017100030E0898D882F90E00496F90102C0F5959C
:10172000E7958A95E2F7CF01817090700097A9F450
:101730008A8D282F30E0898D482F50E0220F331FEB
:10174000220F331FCE010196820F931F840F951F26
:10175000FC017A9640814BA70EC0898D8F5F898FDF
:10176000898D843088F28A8D8F5F8A8F8A8D84304C
:1017700008F4F6CE1BA68BA5E0960FB6F894DEBF54
:101780000FBECDBFCF91DF9108950F931F93DF93CD
:10179000CF93CDB7DEB7C05BD0400FB6F894DEBFB5
:1017A0000FBECDBF83E06FEF0E944F0682E060E086
:1017B00041E00E94D10682E062E041E00E94D10651
:1017C000FE01E355FF4F80E090E0A0E2B2E48083A9
:1017D0009183A283B3838E0107551F4FFE01E3550A
:1017E000FF4F608171818281938120E030E04AEF78
:1017F00054E40E941F02DC01CB01F8018083918335
:10180000A283B383FE01E755FF4F6081718182811E
:10181000938120E030E040E85FE30E9425048823C4
:1018200044F4FE01E955FF4F81E090E0918380830D
:1018300064C0FE01E755FF4F608171818281938111
:1018400020E03FEF4FE757E40E94C50318160CF065
:1018500043C0FE01E355FF4F608171818281938116
:1018600020E030E040E251E40E941F02DC01CB01A5
:101870008E0109551F4FBC01CD010E944900DC01BA
:10188000CB01F801918380831FC0FE01EB55FF4F10
:1018900088EC90E091838083FE01EB55FF4F8081BF
:1018A00091810197F1F7FE01EB55FF4F9183808302
:1018B000DE01A955BF4FFE01E955FF4F808191819F
:1018C000019711969C938E93FE01E955FF4F8081FD
:1018D00091810097D1F627C08E0109551F4FFE0157
:1018E000E755FF4F60817181828193810E94490099
:1018F000DC01CB01F80191838083DE01AD55BF4F40
:10190000FE01E955FF4F808191818D939C93FE01EB
:10191000ED55FF4F808191810197F1F7FE01ED5563
:10192000FF4F9183808380E30E947D13FE01E15687
:10193000FF4F80E090E0A0E2B1E480839183A28336
:10194000B3838E0105561F4FFE01E156FF4F6081A4
:1019500071818281938120E030E04AEF54E40E945B
:101960001F02DC01CB01F80180839183A283B38342
:10197000FE01E556FF4F608171818281938120E0F5
:1019800030E040E85FE30E942504882344F4FE0130
:10199000E756FF4F81E090E09183808364C0FE01B1
:1019A000E556FF4F608171818281938120E03FEF96
:1019B0004FE757E40E94C50318160CF043C0FE0120
:1019C000E156FF4F608171818281938120E030E098
:1019D00040E251E40E941F02DC01CB018E01075658
:1019E0001F4FBC01CD010E944900DC01CB01F80171
:1019F000918380831FC0FE01E956FF4F88EC90E081
:101A000091838083FE01E956FF4F80819181019788
:101A1000F1F7FE01E956FF4F91838083DE01A7565F
:101A2000BF4FFE01E756FF4F8081918101971196CC
:101A30009C938E93FE01E756FF4F80819181009722
:101A4000D1F627C08E0107561F4FFE01E556FF4F06
:101A500060817181828193810E944900DC01CB0108
:101A6000F80191838083DE01AB56BF4FFE01E7563C
:101A7000FF4F808191818D939C93FE01EB56FF4F28
:101A8000808191810197F1F7FE01EB56FF4F918321
:101A9000808380E30E947D13FE01EF56FF4F80E0BC
:101AA00090E0A0E8BFE380839183A283B3838E019B
:101AB00003571F4FFE01EF56FF4F608171818281F6
:101AC000938120E030E04AEF54E40E941F02DC01E1
:101AD000CB01F80180839183A283B383FE01E35796
:101AE000FF4F608171818281938120E030E040E886
:101AF0005FE30E942504882344F4FE01E557FF4F6D
:101B000081E090E09183808364C0FE01E357FF4F42
:101B1000608171818281938120E03FEF4FE757E43C
:101B20000E94C50318160CF043C0FE01EF56FF4F8C
:101B3000608171818281938120E030E040E251E454
:101B40000E941F02DC01CB018E0105571F4FBC0113
:101B5000CD010E944900DC01CB01F8019183808313
:101B60001FC0FE01E757FF4F88EC90E09183808310
:101B7000FE01E757FF4F808191810197F1F7FE0148
:101B8000E757FF4F91838083DE01A557BF4FFE01CA
:101B9000E557FF4F80819181019711969C938E9319
:101BA000FE01E557FF4F808191810097D1F627C054
:101BB0008E0105571F4FFE01E357FF4F6081718172
:101BC000828193810E944900DC01CB01F80191835D
:101BD0008083DE01A957BF4FFE01E557FF4F80818B
:101BE00091818D939C93FE01E957FF4F80819181F4
:101BF0000197F1F7FE01E957FF4F9183808380E35E
:101C00000E947D13FE01ED57FF4F80E090E0A6E1BA
:101C1000B3E480839183A283B3838E0101581F4F65
:101C2000FE01ED57FF4F60817181828193812BEA24
:101C30003AEA4AE250E40E941F02DC01CB01F801BB
:101C400080839183A283B383FE01E158FF4F6081BB
:101C500071818281938120E030E040E85FE30E945F
:101C60002504882334F4FE01E258FF4F81E080838D
:101C7000E0C0FE01E158FF4F608171818281938154
:101C800020E030E04FE753E40E94C50318160CF043
:101C9000C0C0FE01ED57FF4F608171818281938149
:101CA00020E030E04AE754E40E941903DC01CB0154
:101CB000FE01E658FF4F80839183A283B3838E0198
:101CC0000A581F4FFE01E658FF4F608171818281E3
:101CD000938120E030E04AEF54E40E941F02DC01CF
:101CE000CB01F80180839183A283B383FE01EA587C
:101CF000FF4F608171818281938120E030E040E874
:101D00005FE30E942504882344F4FE01EC58FF4F52
:101D100081E090E09183808364C0FE01EA58FF4F28
:101D2000608171818281938120E03FEF4FE757E42A
:101D30000E94C50318160CF043C0FE01E658FF4F81
:101D4000608171818281938120E030E040E251E442
:101D50000E941F02DC01CB018E010C581F4FBC01F9
:101D6000CD010E944900DC01CB01F8019183808301
:101D70001FC0FE01EE58FF4F88EC90E091838083F6
:101D8000FE01EE58FF4F808191810197F1F7FE012E
:101D9000EE58FF4F91838083DE01AC58BF4FFE01A8
:101DA000EC58FF4F80819181019711969C938E93FF
:101DB000FE01EC58FF4F808191810097D1F64BC016
:101DC0008E010C581F4FFE01EA58FF4F6081718150
:101DD000828193810E944900DC01CB01F80191834B
:101DE0008083DE01A059BF4FFE01EC58FF4F808178
:101DF000918111969C938E93FE01E059FF4F808153
:101E000091810197F1F7FE01E059FF4F91838083A3
:101E100022C08E0102581F4FFE01E158FF4F608122
:101E20007181828193810E944900DC01CB01F8011C
:101E30008083DE01A159BF4FFE01E258FF4F808130
:101E40008C93FE01E159FF4F80818A95F1F7FE01E5
:101E5000E159FF4F808388E30E947D13FE01E5591D
:101E6000FF4F80E090E0A8E4B2E480839183A283F6
:101E7000B3838E0109591F4FFE01E559FF4F608161
:101E80007181828193812BEA3AEA4AE250E40E940E
:101E90001F02DC01CB01F80180839183A283B3830D
:101EA000FE01E959FF4F608171818281938120E0B9
:101EB00030E040E85FE30E942504882334F4FE010B
:101EC000EA59FF4F81E08083E0C0FE01E959FF4FEE
:101ED000608171818281938120E030E04FE753E49B
:101EE0000E94C50318160CF0C0C0FE01E559FF4F53
:101EF000608171818281938120E030E04AE754E47F
:101F00000E941903DC01CB01FE01EE59FF4F8083D3
:101F10009183A283B3838E01025A1F4FFE01EE59B3
:101F2000FF4F608171818281938120E030E04AEF30
:101F300054E40E941F02DC01CB01F80180839183ED
:101F4000A283B383FE01E25AFF4F608171818281D7
:101F5000938120E030E040E85FE30E94250488237D
:101F600044F4FE01E45AFF4F81E090E091838083C6
:101F700064C0FE01E25AFF4F6081718182819381CA
:101F800020E03FEF4FE757E40E94C50318160CF01E
:101F900043C0FE01EE59FF4F6081718182819381C0
:101FA00020E030E040E251E40E941F02DC01CB015E
:101FB0008E01045A1F4FBC01CD010E944900DC0173
:101FC000CB01F801918380831FC0FE01E65AFF4FC9
:101FD00088EC90E091838083FE01E65AFF4F808178
:101FE00091810197F1F7FE01E65AFF4F91838083BB
:101FF000DE01A45ABF4FFE01E45AFF4F8081918158
:10200000019711969C938E93FE01E45AFF4F8081B5
:1020100091810097D1F64BC08E01045A1F4FFE01EB
:10202000E25AFF4F60817181828193810E94490051
:10203000DC01CB01F80191838083DE01A85ABF4FF8
:10204000FE01E45AFF4F8081918111969C938E93FB
:10205000FE01E85AFF4F808191810197F1F7FE015F
:10206000E85AFF4F9183808322C08E010A591F4F87
:10207000FE01E959FF4F60817181828193810E9445
:102080004900DC01CB01F8018083DE01A95ABF4F72
:10209000FE01EA59FF4F80818C93FE01E95AFF4F00
:1020A00080818A95F1F7FE01E95AFF4F808388E02D
:1020B0000E947D13FE01ED5AFF4F80E090E0A8E4FE
:1020C000B2E480839183A283B3838E01015B1F4FAF
:1020D000FE01ED5AFF4F60817181828193812BEA6D
:1020E0003AEA4AE250E40E941F02DC01CB01F80107
:1020F00080839183A283B383FE01E15BFF4F608104
:1021000071818281938120E030E040E85FE30E94AA
:102110002504882334F4FE01E25BFF4F81E08083D5
:10212000E0C0FE01E15BFF4F60817181828193819C
:1021300020E030E04FE753E40E94C50318160CF08E
:10214000C0C0FE01ED5AFF4F608171818281938191
:1021500020E030E04AE754E40E941903DC01CB019F
:10216000FE01E65BFF4F80839183A283B3838E01E0
:102170000A5B1F4FFE01E65BFF4F60817181828128
:10218000938120E030E04AEF54E40E941F02DC011A
:10219000CB01F80180839183A283B383FE01EA5BC4
:1021A000FF4F608171818281938120E030E040E8BF
:1021B0005FE30E942504882344F4FE01EC5BFF4F9B
:1021C00081E090E09183808364C0FE01EA5BFF4F71
:1021D000608171818281938120E03FEF4FE757E476
:1021E0000E94C50318160CF043C0FE01E65BFF4FCA
:1021F000608171818281938120E030E040E251E48E
:102200000E941F02DC01CB018E010C5B1F4FBC0141
:10221000CD010E944900DC01CB01F801918380834C
:102220001FC0FE01EE5BFF4F88EC90E0918380833E
:10223000FE01EE5BFF4F808191810197F1F7FE0176
:10224000EE5BFF4F91838083DE01AC5BBF4FFE01ED
:10225000EC5BFF4F80819181019711969C938E9347
:10226000FE01EC5BFF4F808191810097D1F642C067
:102270008E010C5B1F4FFE01EA5BFF4F6081718195
:10228000828193810E944900DC01CB01F801918396
:102290008083DE01A05CBF4FFE01EC5BFF4F8081BD
:1022A000918111969C938E93FE01E05CFF4F80819B
:1022B00091810197F1F7FE01E05CFF4F91838083EC
:1022C00019C08E01025B1F4FFE01E15BFF4F608171
:1022D0007181828193810E944900DC01CB01F80168
:1022E0008083FE01E25BFF4F80818FAF8FAD8A95C7
:1022F000F1F78FAF81E00E947D1380E090E0A0E4D1
:10230000B0E48BAF9CAFADAFBEAF6BAD7CAD8DAD70
:102310009EAD20E030E04AEF54E40E941F02DC0151
:10232000CB018FAB98AFA9AFBAAF6FA978AD89AD2C
:102330009AAD20E030E040E85FE30E942504882366
:102340002CF481E090E09EAB8DAB3FC06FA978ADDF
:1023500089AD9AAD20E03FEF4FE757E40E94C503F7
:1023600018164CF56BAD7CAD8DAD9EAD20E030E028
:1023700040E251E40E941F02DC01CB01BC01CD010F
:102380000E944900DC01CB019EAB8DAB0FC088ECF5
:1023900090E09CAB8BAB8BA99CA90197F1F79CAB10
:1023A0008BAB8DA99EA901979EAB8DAB8DA99EA9E4
:1023B000009769F714C06FA978AD89AD9AAD0E94F6
:1023C0004900DC01CB019EAB8DAB8DA99EA99AABD8
:1023D00089AB89A99AA90197F1F79AAB89AB86E0F5
:1023E0000E947D1380E090E0A8E4B2E48DA79EA750
:1023F000AFA7B8AB6DA57EA58FA598A92BEA3AEA41
:102400004AE250E40E941F02DC01CB0189A79AA78F
:10241000ABA7BCA769A57AA58BA59CA520E030E059
:1024200040E85FE30E94250488231CF481E088A72C
:1024300091C069A57AA58BA59CA520E030E04FE767
:1024400053E40E94C50318160CF07BC06DA57EA551
:102450008FA598A920E030E04AE754E40E941903D0
:10246000DC01CB018CA39DA3AEA3BFA36CA17DA176
:102470008EA19FA120E030E04AEF54E40E941F02A9
:10248000DC01CB0188A399A3AAA3BBA368A179A16E
:102490008AA19BA120E030E040E85FE30E94250490
:1024A00088232CF481E090E09F8F8E8F3FC068A13D
:1024B00079A18AA19BA120E03FEF4FE757E40E945A
:1024C000C50318164CF56CA17DA18EA19FA120E03B
:1024D00030E040E251E40E941F02DC01CB01BC016C
:1024E000CD010E944900DC01CB019F8F8E8F0FC070
:1024F00088EC90E09D8F8C8F8C8D9D8D0197F1F7EE
:102500009D8F8C8F8E8D9F8D01979F8F8E8F8E8D3F
:102510009F8D009769F724C068A179A18AA19BA12A
:102520000E944900DC01CB019F8F8E8F8E8D9F8D85
:102530009B8F8A8F8A8D9B8D0197F1F79B8F8A8F56
:102540000FC069A57AA58BA59CA50E944900DC0156
:10255000CB0188A788A5898F898D8A95F1F7898F06
:102560008CE00E947D1380E090E0A8E4B2E48D8BC3
:102570009E8BAF8BB88F6D897E898F89988D2BEA62
:102580003AEA4AE250E40E941F02DC01CB01898B47
:102590009A8BAB8BBC8B69897A898B899C8920E06B
:1025A00030E040E85FE30E94250488231CF481E0CA
:1025B000888B91C069897A898B899C8920E030E079
:1025C0004FE753E40E94C50318160CF07BC06D89D9
:1025D0007E898F89988D20E030E04AE754E40E949C
:1025E0001903DC01CB018C879D87AE87BF876C8583
:1025F0007D858E859F8520E030E04AEF54E40E947F
:102600001F02DC01CB0188879987AA87BB87688571
:1026100079858A859B8520E030E040E85FE30E9471
:10262000250488232CF481E090E09F838E833FC0B3
:10263000688579858A859B8520E03FEF4FE757E4E1
:102640000E94C50318164CF56C857D858E859F8587
:1026500020E030E040E251E40E941F02DC01CB01A7
:10266000BC01CD010E944900DC01CB019F838E8318
:102670000FC088EC90E09D838C838C819D810197B5
:10268000F1F79D838C838E819F8101979F838E8339
:102690008E819F81009769F724C0688579858A8536
:1026A0009B850E944900DC01CB019F838E838E8134
:1026B0009F819B838A838A819B810197F1F79B830A
:1026C0008A830FC069897A898B899C890E94490015
:1026D000DC01CB01888B8889898389818A95F1F710
:1026E0008983C055DF4F0FB6F894DEBF0FBECDBF54
:1026F000CF91DF911F910F910895DF93CF93CDB7C5
:10270000DEB72F970FB6F894DEBF0FBECDBF8F8711
:1027100082E060E040E00E94470883E06F850E940D
:10272000900682E061E00E944F0682E062E041E0B4
:102730000E94470880E090E0A0E0B0E48B879C878F
:10274000AD87BE876B857C858D859E8520E030E0DA
:102750004AEF54E40E941F02DC01CB018F8398876B
:10276000A987BA876F81788589859A8520E030E0CE
:1027700040E85FE30E94250488232CF481E090E088
:102780009E838D833FC06F81788589859A8520E0FF
:102790003FEF4FE757E40E94C50318164CF56B85D1
:1027A0007C858D859E8520E030E040E251E40E94EA
:1027B0001F02DC01CB01BC01CD010E944900DC01FC
:1027C000CB019E838D830FC088EC90E09C838B832C
:1027D0008B819C810197F1F79C838B838D819E81F6
:1027E00001979E838D838D819E81009769F714C028
:1027F0006F81788589859A850E944900DC01CB012B
:102800009E838D838D819E819A83898389819A811C
:102810000197F1F79A83898382E062E040E00E94A9
:1028200047082F960FB6F894DEBF0FBECDBFCF91ED
:10283000DF910895DF93CF93CDB7DEB7E1970FB661
:10284000F894DEBF0FBECDBF89AB82E060E041E00F
:102850000E94470882E061E040E00E94470883E070
:1028600069A90E94900682E062E041E00E94470868
:1028700080E090E0A0E8BFE38DA79EA7AFA7B8AB2C
:102880006DA57EA58FA598A92BEA3AEA4AE250E405
:102890000E941F02DC01CB0189A79AA7ABA7BCA7A6
:1028A00069A57AA58BA59CA520E030E040E85FE310
:1028B0000E94250488231CF481E088A791C069A5A3
:1028C0007AA58BA59CA520E030E04FE753E40E9459
:1028D000C50318160CF07BC06DA57EA58FA598A921
:1028E00020E030E04AE754E40E941903DC01CB0108
:1028F0008CA39DA3AEA3BFA36CA17DA18EA19FA11C
:1029000020E030E04AEF54E40E941F02DC01CB01DA
:1029100088A399A3AAA3BBA368A179A18AA19BA11B
:1029200020E030E040E85FE30E94250488232CF497
:1029300081E090E09F8F8E8F3FC068A179A18AA12E
:102940009BA120E03FEF4FE757E40E94C503181614
:102950004CF56CA17DA18EA19FA120E030E040E26A
:1029600051E40E941F02DC01CB01BC01CD010E9499
:102970004900DC01CB019F8F8E8F0FC088EC90E067
:102980009D8F8C8F8C8D9D8D0197F1F79D8F8C8FF6
:102990008E8D9F8D01979F8F8E8F8E8D9F8D00972F
:1029A00069F724C068A179A18AA19BA10E9449006E
:1029B000DC01CB019F8F8E8F8E8D9F8D9B8F8A8F99
:1029C0008A8D9B8D0197F1F79B8F8A8F0FC069A528
:1029D0007AA58BA59CA50E944900DC01CB0188A7A4
:1029E00088A5898F898D8A95F1F7898F82E062E0C9
:1029F00040E00E94470880E090E0A8E4B2E48D8BBC
:102A00009E8BAF8BB88F6D897E898F89988D2BEACD
:102A10003AEA4AE250E40E941F02DC01CB01898BB2
:102A20009A8BAB8BBC8B69897A898B899C8920E0D6
:102A300030E040E85FE30E94250488231CF481E035
:102A4000888B91C069897A898B899C8920E030E0E4
:102A50004FE753E40E94C50318160CF07BC06D8944
:102A60007E898F89988D20E030E04AE754E40E9407
:102A70001903DC01CB018C879D87AE87BF876C85EE
:102A80007D858E859F8520E030E04AEF54E40E94EA
:102A90001F02DC01CB0188879987AA87BB876885DD
:102AA00079858A859B8520E030E040E85FE30E94DD
:102AB000250488232CF481E090E09F838E833FC01F
:102AC000688579858A859B8520E03FEF4FE757E44D
:102AD0000E94C50318164CF56C857D858E859F85F3
:102AE00020E030E040E251E40E941F02DC01CB0113
:102AF000BC01CD010E944900DC01CB019F838E8384
:102B00000FC088EC90E09D838C838C819D81019720
:102B1000F1F79D838C838E819F8101979F838E83A4
:102B20008E819F81009769F724C0688579858A85A1
:102B30009B850E944900DC01CB019F838E838E819F
:102B40009F819B838A838A819B810197F1F79B8375
:102B50008A830FC069897A898B899C890E94490080
:102B6000DC01CB01888B8889898389818A95F1F77B
:102B70008983E1960FB6F894DEBF0FBECDBFCF912B
:102B8000DF910895DF93CF9300D000D0CDB7DEB7AB
:102B90008A836B838A818031A0F48B81823088F4B0
:102BA0008B81882329F48A81982F90589C8304C0B4
:102BB0008A81982F90549C838C81898389810E947B
:102BC0007D130F900F900F900F90CF91DF9108958C
:102BD000DF93CF93CDB7DEB72E970FB6F894DEBF55
:102BE0000FBECDBF81E00E947D1380E090E0A0E0A9
:102BF000B0E48B879C87AD87BE876B857C858D8590
:102C00009E8520E030E04AEF54E40E941F02DC0180
:102C1000CB018F839887A987BA876F81788589854B
:102C20009A8520E030E040E85FE30E942504882395
:102C30002CF481E090E09E838D833FC06F81788586
:102C400089859A8520E03FEF4FE757E40E94C5034E
:102C500018164CF56B857C858D859E8520E030E0CF
:102C600040E251E40E941F02DC01CB01BC01CD0116
:102C70000E944900DC01CB019E838D830FC088EC4C
:102C800090E09C838B838B819C810197F1F79C83DF
:102C90008B838D819E8101979E838D838D819E8103
:102CA000009769F714C06F81788589859A850E949D
:102CB0004900DC01CB019E838D838D819E819A83A7
:102CC000898389819A810197F1F79A83898380E8C2
:102CD0000E947D132E960FB6F894DEBF0FBECDBFB7
:102CE000CF91DF910895DF93CF93CDB7DEB72D97C6
:102CF0000FB6F894DEBF0FBECDBF9D878C871982BB
:102D00008C859D85009711F580E30E941A1434C0CC
:102D10008981E82FF0E08C859D852AE030E0B901BB
:102D20000E942A2B282F205DCE010296E80FF91F62
:102D300020838C859D852AE030E0B9010E942A2BF2
:102D4000CB019D878C8789818F5F89838C859D8549
:102D50000097F1F60EC08981815089838981282FDF
:102D600030E0CE010296FC01E20FF31F80810E9449
:102D70001A148981882379F72D960FB6F894DEBF4F
:102D80000FBECDBFCF91DF9108950F931F93DF93B7
:102D9000CF93CDB7DEB7C755D0400FB6F894DEBF9E
:102DA0000FBECDBFFE01E95AFF4F8083A5E3B0E01F
:102DB000E5E3F0E080818E7F8C93A5E3B0E0E5E36E
:102DC000F0E080818D7F8C93A2E3B0E0E2E3F0E05D
:102DD0008081982F907FFE01E95AFF4F8081829574
:102DE0008F70892B8C93A5E3B0E0E5E3F0E0808160
:102DF00084608C93FE01ED5AFF4F80E090E0A0E8E4
:102E0000BFE380839183A283B3838E01015B1F4F55
:102E1000FE01ED5AFF4F60817181828193812BEA1F
:102E20003AEA4AE250E40E941F02DC01CB01F801B9
:102E300080839183A283B383FE01E15BFF4F6081B6
:102E400071818281938120E030E040E85FE30E945D
:102E50002504882334F4FE01E25BFF4F81E0808388
:102E6000E0C0FE01E15BFF4F60817181828193814F
:102E700020E030E04FE753E40E94C50318160CF041
:102E8000C0C0FE01ED5AFF4F608171818281938144
:102E900020E030E04AE754E40E941903DC01CB0152
:102EA000FE01E65BFF4F80839183A283B3838E0193
:102EB0000A5B1F4FFE01E65BFF4F608171818281DB
:102EC000938120E030E04AEF54E40E941F02DC01CD
:102ED000CB01F80180839183A283B383FE01EA5B77
:102EE000FF4F608171818281938120E030E040E872
:102EF0005FE30E942504882344F4FE01EC5BFF4F4E
:102F000081E090E09183808364C0FE01EA5BFF4F23
:102F1000608171818281938120E03FEF4FE757E428
:102F20000E94C50318160CF043C0FE01E65BFF4F7C
:102F3000608171818281938120E030E040E251E440
:102F40000E941F02DC01CB018E010C5B1F4FBC01F4
:102F5000CD010E944900DC01CB01F80191838083FF
:102F60001FC0FE01EE5BFF4F88EC90E091838083F1
:102F7000FE01EE5BFF4F808191810197F1F7FE0129
:102F8000EE5BFF4F91838083DE01AC5BBF4FFE01A0
:102F9000EC5BFF4F80819181019711969C938E93FA
:102FA000FE01EC5BFF4F808191810097D1F642C01A
:102FB0008E010C5B1F4FFE01EA5BFF4F6081718148
:102FC000828193810E944900DC01CB01F801918349
:102FD0008083DE01A05CBF4FFE01EC5BFF4F808170
:102FE000918111969C938E93FE01E05CFF4F80814E
:102FF00091810197F1F7FE01E05CFF4F918380839F
:1030000019C08E01025B1F4FFE01E15BFF4F608123
:103010007181828193810E944900DC01CB01F8011A
:103020008083FE01E25BFF4F80818FAF8FAD8A9579
:10303000F1F78FAFA5E3B0E0E5E3F0E080818B7FAF
:103040008C9380E090E0A8E4B3E48BAF9CAFADAF8D
:10305000BEAF6BAD7CAD8DAD9EAD2BEA3AEA4AE2D8
:1030600050E40E941F02DC01CB018FAB98AFA9AFE7
:10307000BAAF6FA978AD89AD9AAD20E030E040E8F5
:103080005FE30E94250488231CF481E08EAB91C08D
:103090006FA978AD89AD9AAD20E030E04FE753E4F9
:1030A0000E94C50318160CF07BC06BAD7CAD8DADD6
:1030B0009EAD20E030E04AE754E40E941903DC01B1
:1030C000CB018AAB9BABACABBDAB6AA97BA98CA98E
:1030D0009DA920E030E04AEF54E40E941F02DC0189
:1030E000CB018EA79FA7A8ABB9AB6EA57FA588A97A
:1030F00099A920E030E040E85FE30E94250488239E
:103100002CF481E090E09DA78CA73FC06EA57FA521
:1031100088A999A920E03FEF4FE757E40E94C50333
:1031200018164CF56AA97BA98CA99DA920E030E06E
:1031300040E251E40E941F02DC01CB01BC01CD0141
:103140000E944900DC01CB019DA78CA70FC088EC31
:1031500090E09BA78AA78AA59BA50197F1F79BA75B
:103160008AA78CA59DA501979DA78CA78CA59DA539
:10317000009769F724C06EA57FA588A999A90E9428
:103180004900DC01CB019DA78CA78CA59DA599A723
:1031900088A788A599A50197F1F799A788A70FC0D7
:1031A0006FA978AD89AD9AAD0E944900DC01CB01D1
:1031B0008EAB8EA98FA38FA18A95F1F78FA3A2E37F
:1031C000B0E0E2E3F0E08081982F907FFE01E95AC1
:1031D000FF4F80818F70892B8C93A5E3B0E0E5E3EE
:1031E000F0E0808184608C9380E090E0A0E8BFE311
:1031F0008BA39CA3ADA3BEA36BA17CA18DA19EA11B
:103200002BEA3AEA4AE250E40E941F02DC01CB01B9
:103210008F8F98A3A9A3BAA36F8D78A189A19AA132
:1032200020E030E040E85FE30E94250488231CF49E
:1032300081E08E8F91C06F8D78A189A19AA120E045
:1032400030E04FE753E40E94C50318160CF07BC032
:103250006BA17CA18DA19EA120E030E04AE754E45F
:103260000E941903DC01CB018A8F9B8FAC8FBD8F2D
:103270006A8D7B8D8C8D9D8D20E030E04AEF54E48B
:103280000E941F02DC01CB018E8B9F8BA88FB98F10
:103290006E897F89888D998D20E030E040E85FE37A
:1032A0000E94250488232CF481E090E09D8B8C8B78
:1032B0003FC06E897F89888D998D20E03FEF4FE771
:1032C00057E40E94C50318164CF56A8D7B8D8C8DD2
:1032D0009D8D20E030E040E251E40E941F02DC01BD
:1032E000CB01BC01CD010E944900DC01CB019D8BCB
:1032F0008C8B0FC088EC90E09B8B8A8B8A899B8992
:103300000197F1F79B8B8A8B8C899D8901979D8B07
:103310008C8B8C899D89009769F724C06E897F8981
:10332000888D998D0E944900DC01CB019D8B8C8B8F
:103330008C899D89998B888B888999890197F1F768
:10334000998B888B0FC06F8D78A189A19AA10E945B
:103350004900DC01CB018E8F8E8D8F878F858A95FA
:10336000F1F78F87A5E3B0E0E5E3F0E080818B7FA4
:103370008C9380E090E0A0E0B0E48B879C87AD87E1
:10338000BE876B857C858D859E8520E030E04AEF89
:1033900054E40E941F02DC01CB018F839887A98728
:1033A000BA876F81788589859A8520E030E040E88A
:1033B0005FE30E94250488232CF481E090E09E8343
:1033C0008D833FC06F81788589859A8520E03FEFA6
:1033D0004FE757E40E94C50318164CF56B857C85B2
:1033E0008D859E8520E030E040E251E40E941F027E
:1033F000DC01CB01BC01CD010E944900DC01CB0105
:103400009E838D830FC088EC90E09C838B838B819F
:103410009C810197F1F79C838B838D819E8101971D
:103420009E838D838D819E81009769F714C06F8183
:10343000788589859A850E944900DC01CB019E83AD
:103440008D838D819E819A83898389819A81019759
:10345000F1F79A838983C95ADF4F0FB6F894DEBF1C
:103460000FBECDBFCF91DF911F910F910895DF93D4
:10347000CF9300D000D0CDB7DEB78A836B838A812B
:103480008031A0F48B81823088F48B81882329F4E9
:103490008A81982F90589C8304C08A81982F9054D9
:1034A0009C838C81898389810E94C5160F900F901F
:1034B0000F900F90CF91DF9108950F931F93DF939B
:1034C000CF93CDB7DEB7C755D0400FB6F894DEBF67
:1034D0000FBECDBFFE01E95AFF4F8083A5E3B0E0E8
:1034E000E5E3F0E0808181608C93A5E3B0E0E5E363
:1034F000F0E080818D7F8C93A2E3B0E0E2E3F0E026
:103500008081982F907FFE01E95AFF4F808182953C
:103510008F70892B8C93A5E3B0E0E5E3F0E0808128
:1035200084608C93FE01ED5AFF4F80E090E0A0E8AC
:10353000BFE380839183A283B3838E01015B1F4F1E
:10354000FE01ED5AFF4F60817181828193812BEAE8
:103550003AEA4AE250E40E941F02DC01CB01F80182
:1035600080839183A283B383FE01E15BFF4F60817F
:1035700071818281938120E030E040E85FE30E9426
:103580002504882334F4FE01E25BFF4F81E0808351
:10359000E0C0FE01E15BFF4F608171818281938118
:1035A00020E030E04FE753E40E94C50318160CF00A
:1035B000C0C0FE01ED5AFF4F60817181828193810D
:1035C00020E030E04AE754E40E941903DC01CB011B
:1035D000FE01E65BFF4F80839183A283B3838E015C
:1035E0000A5B1F4FFE01E65BFF4F608171818281A4
:1035F000938120E030E04AEF54E40E941F02DC0196
:10360000CB01F80180839183A283B383FE01EA5B3F
:10361000FF4F608171818281938120E030E040E83A
:103620005FE30E942504882344F4FE01EC5BFF4F16
:1036300081E090E09183808364C0FE01EA5BFF4FEC
:10364000608171818281938120E03FEF4FE757E4F1
:103650000E94C50318160CF043C0FE01E65BFF4F45
:10366000608171818281938120E030E040E251E409
:103670000E941F02DC01CB018E010C5B1F4FBC01BD
:10368000CD010E944900DC01CB01F80191838083C8
:103690001FC0FE01EE5BFF4F88EC90E091838083BA
:1036A000FE01EE5BFF4F808191810197F1F7FE01F2
:1036B000EE5BFF4F91838083DE01AC5BBF4FFE0169
:1036C000EC5BFF4F80819181019711969C938E93C3
:1036D000FE01EC5BFF4F808191810097D1F642C0E3
:1036E0008E010C5B1F4FFE01EA5BFF4F6081718111
:1036F000828193810E944900DC01CB01F801918312
:103700008083DE01A05CBF4FFE01EC5BFF4F808138
:10371000918111969C938E93FE01E05CFF4F808116
:1037200091810197F1F7FE01E05CFF4F9183808367
:1037300019C08E01025B1F4FFE01E15BFF4F6081EC
:103740007181828193810E944900DC01CB01F801E3
:103750008083FE01E25BFF4F80818FAF8FAD8A9542
:10376000F1F78FAFA5E3B0E0E5E3F0E080818B7F78
:103770008C9380E090E0A8E4B3E48BAF9CAFADAF56
:10378000BEAF6BAD7CAD8DAD9EAD2BEA3AEA4AE2A1
:1037900050E40E941F02DC01CB018FAB98AFA9AFB0
:1037A000BAAF6FA978AD89AD9AAD20E030E040E8BE
:1037B0005FE30E94250488231CF481E08EAB91C056
:1037C0006FA978AD89AD9AAD20E030E04FE753E4C2
:1037D0000E94C50318160CF07BC06BAD7CAD8DAD9F
:1037E0009EAD20E030E04AE754E40E941903DC017A
:1037F000CB018AAB9BABACABBDAB6AA97BA98CA957
:103800009DA920E030E04AEF54E40E941F02DC0151
:10381000CB018EA79FA7A8ABB9AB6EA57FA588A942
:1038200099A920E030E040E85FE30E942504882366
:103830002CF481E090E09DA78CA73FC06EA57FA5EA
:1038400088A999A920E03FEF4FE757E40E94C503FC
:1038500018164CF56AA97BA98CA99DA920E030E037
:1038600040E251E40E941F02DC01CB01BC01CD010A
:103870000E944900DC01CB019DA78CA70FC088ECFA
:1038800090E09BA78AA78AA59BA50197F1F79BA724
:103890008AA78CA59DA501979DA78CA78CA59DA502
:1038A000009769F724C06EA57FA588A999A90E94F1
:1038B0004900DC01CB019DA78CA78CA59DA599A7EC
:1038C00088A788A599A50197F1F799A788A70FC0A0
:1038D0006FA978AD89AD9AAD0E944900DC01CB019A
:1038E0008EAB8EA98FA38FA18A95F1F78FA3A2E348
:1038F000B0E0E2E3F0E08081982F907FFE01E95A8A
:10390000FF4F80818F70892B8C93A5E3B0E0E5E3B6
:10391000F0E0808184608C9380E090E0A0E8BFE3D9
:103920008BA39CA3ADA3BEA36BA17CA18DA19EA1E3
:103930002BEA3AEA4AE250E40E941F02DC01CB0182
:103940008F8F98A3A9A3BAA36F8D78A189A19AA1FB
:1039500020E030E040E85FE30E94250488231CF467
:1039600081E08E8F91C06F8D78A189A19AA120E00E
:1039700030E04FE753E40E94C50318160CF07BC0FB
:103980006BA17CA18DA19EA120E030E04AE754E428
:103990000E941903DC01CB018A8F9B8FAC8FBD8FF6
:1039A0006A8D7B8D8C8D9D8D20E030E04AEF54E454
:1039B0000E941F02DC01CB018E8B9F8BA88FB98FD9
:1039C0006E897F89888D998D20E030E040E85FE343
:1039D0000E94250488232CF481E090E09D8B8C8B41
:1039E0003FC06E897F89888D998D20E03FEF4FE73A
:1039F00057E40E94C50318164CF56A8D7B8D8C8D9B
:103A00009D8D20E030E040E251E40E941F02DC0185
:103A1000CB01BC01CD010E944900DC01CB019D8B93
:103A20008C8B0FC088EC90E09B8B8A8B8A899B895A
:103A30000197F1F79B8B8A8B8C899D8901979D8BD0
:103A40008C8B8C899D89009769F724C06E897F894A
:103A5000888D998D0E944900DC01CB019D8B8C8B58
:103A60008C899D89998B888B888999890197F1F731
:103A7000998B888B0FC06F8D78A189A19AA10E9424
:103A80004900DC01CB018E8F8E8D8F878F858A95C3
:103A9000F1F78F87A5E3B0E0E5E3F0E080818B7F6D
:103AA0008C9380E090E0A0E0B0E48B879C87AD87AA
:103AB000BE876B857C858D859E8520E030E04AEF52
:103AC00054E40E941F02DC01CB018F839887A987F1
:103AD000BA876F81788589859A8520E030E040E853
:103AE0005FE30E94250488232CF481E090E09E830C
:103AF0008D833FC06F81788589859A8520E03FEF6F
:103B00004FE757E40E94C50318164CF56B857C857A
:103B10008D859E8520E030E040E251E40E941F0246
:103B2000DC01CB01BC01CD010E944900DC01CB01CD
:103B30009E838D830FC088EC90E09C838B838B8168
:103B40009C810197F1F79C838B838D819E810197E6
:103B50009E838D838D819E81009769F714C06F814C
:103B6000788589859A850E944900DC01CB019E8376
:103B70008D838D819E819A83898389819A81019722
:103B8000F1F79A838983C95ADF4F0FB6F894DEBFE5
:103B90000FBECDBFCF91DF911F910F910895DF939D
:103BA000CF93CDB7DEB76C970FB6F894DEBF0FBEDC
:103BB000CDBF82E060E041E00E94D10682E061E09A
:103BC00041E00E94D10682E062E041E00E94D1061D
:103BD00083E060E041E00E94D10683E061E041E0E3
:103BE0000E94D10683E062E041E00E94D10683E0BA
:103BF00063E041E00E94D10680E090E0A8E4B2E4F6
:103C0000898F9A8FAB8FBC8F698D7A8D8B8D9C8DB0
:103C100020E030E04AEF54E40E941F02DC01CB01B7
:103C20008D8B9E8BAF8BB88F6D897E898F89988D98
:103C300020E030E040E85FE30E94250488232CF474
:103C400081E090E09C8B8B8B3FC06D897E898F8952
:103C5000988D20E03FEF4FE757E40E94C503181608
:103C60004CF5698D7A8D8B8D9C8D20E030E040E2A3
:103C700051E40E941F02DC01CB01BC01CD010E9476
:103C80004900DC01CB019C8B8B8B0FC088EC90E052
:103C90009A8B898B89899A890197F1F79A8B898BFD
:103CA0008B899C8901979C8B8B8B8B899C89009736
:103CB00069F714C06D897E898F89988D0E944900AB
:103CC000DC01CB019C8B8B8B8B899C89988B8F879C
:103CD0008F8598890197F1F7988B8F8783E30E94EE
:103CE000C51683E30E94C51682E30E94C51688E2CA
:103CF0000E94C5168CE00E94C51686E00E94C5167B
:103D000081E00E94C51680E090E0A0E0B0E48B87DF
:103D10009C87AD87BE876B857C858D859E8520E0E1
:103D200030E04AEF54E40E941F02DC01CB018F8394
:103D30009887A987BA876F81788589859A8520E0D9
:103D400030E040E85FE30E94250488232CF481E002
:103D500090E09E838D833FC06F81788589859A85A9
:103D600020E03FEF4FE757E40E94C50318164CF5DB
:103D70006B857C858D859E8520E030E040E251E4B6
:103D80000E941F02DC01CB01BC01CD010E94490051
:103D9000DC01CB019E838D830FC088EC90E09C8377
:103DA0008B838B819C810197F1F79C838B838D8121
:103DB0009E8101979E838D838D819E81009769F7F7
:103DC00014C06F81788589859A850E944900DC013D
:103DD000CB019E838D838D819E819A838983898186
:103DE0009A810197F1F79A8389836C960FB6F894BC
:103DF000DEBF0FBECDBFCF91DF910895DF93CF938C
:103E000000D00F92CDB7DEB79B838A8319828A8157
:103E10009B810097D1F00EC08981282F30E08A81E4
:103E20009B81FC01E20FF31F80810E945D1A898152
:103E30008F5F89838981282F30E08A819B81FC01F3
:103E4000E20FF31F8081882339F70F900F900F90B6
:103E5000CF91DF910895DF93CF93CDB7DEB783E0A5
:103E600064E041E00E94D10683E065E041E00E9409
:103E7000D1060E94C420AFE4B0E0EFE4F0E080811E
:103E800080688C93AFE4B0E0EFE4F0E08081806282
:103E90008C93AFE4B0E0EFE4F0E080818F7B8C9313
:103EA000AFE4B0E0EFE4F0E080818F7E8C93AFE48C
:103EB000B0E0EFE4F0E0808182608C93AEE4B0E0AB
:103EC000EEE4F0E0808180618C93AEE4B0E0EEE45B
:103ED000F0E0808188608C93AEE4B0E0EEE4F0E046
:103EE00080818B7F8C93AEE4B0E0EEE4F0E08081E3
:103EF00082608C93AEE4B0E0EEE4F0E080818E7FEF
:103F00008C93E6E4F0E08FE19EE491838083CF918F
:103F1000DF910895DF93CF93CDB7DEB7E8E4F0E00B
:103F200080ED97E091838083CF91DF910895DF93B7
:103F3000CF93CDB7DEB7E8E4F0E088EE93E091836D
:103F40008083CF91DF910895DF93CF93CDB7DEB714
:103F5000E8E4F0E08CED95E091838083CF91DF91F0
:103F60000895DF93CF93CDB7DEB7EAE4F0E080EDBC
:103F700097E091838083CF91DF910895DF93CF9372
:103F8000CDB7DEB7EAE4F0E088EE93E0918380837A
:103F9000CF91DF910895DF93CF93CDB7DEB7EAE4F9
:103FA000F0E08CED95E091838083CF91DF910895CF
:103FB000DF93CF93CDB7DEB70E94C009A3E5B0E091
:103FC000E3E5F0E080818F7B8C93A3E5B0E0E3E54F
:103FD000F0E08081877F8C93A3E5B0E0E3E5F0E03B
:103FE00080818B7F8C93A3E5B0E0E3E5F0E08081F6
:103FF00082608C93A3E5B0E0E3E5F0E080818E7F02
:104000008C93A9E5B0E0E9E5F0E0808181608C93D4
:10401000CF91DF910895DF93CF93CDB7DEB70E94A4
:10402000C009A3E5B0E0E3E5F0E080818F7B8C93ED
:10403000A3E5B0E0E3E5F0E0808188608C93A3E540
:10404000B0E0E3E5F0E080818B7F8C93A3E5B0E006
:10405000E3E5F0E0808182608C93A3E5B0E0E3E5E6
:10406000F0E080818E7F8C938AEF0E944120A9E549
:10407000B0E0E9E5F0E0808182608C93CF91DF9140
:104080000895DF93CF930F92CDB7DEB78983ECE528
:10409000F0E0898180830F90CF91DF910895DF93C5
:1040A000CF93CDB7DEB7A3E5B0E0E3E5F0E08081E4
:1040B00080648C93A3E5B0E0E3E5F0E08081886064
:1040C0008C93A3E5B0E0E3E5F0E080818B7F8C93F7
:1040D000A3E5B0E0E3E5F0E0808182608C93A3E5A6
:1040E000B0E0E3E5F0E080818E7F8C93A3E5B0E063
:1040F000E3E5F0E0808180628C93A3E5B0E0E3E546
:10410000F0E0808180618C9381E063E041E00E9477
:10411000D106CF91DF910895DF93CF93CDB7DEB76E
:10412000A3E5B0E0E3E5F0E0808180648C93A3E553
:10413000B0E0E3E5F0E08081877F8C93A3E5B0E019
:10414000E3E5F0E080818B7F8C93A3E5B0E0E3E5CD
:10415000F0E0808182608C93A3E5B0E0E3E5F0E0DD
:1041600080818E7F8C93A3E5B0E0E3E5F0E0808171
:1041700080628C93A3E5B0E0E3E5F0E080818061AC
:104180008C93CF91DF910895DF93CF93CDB7DEB7B6
:104190000E94C009EFE4F0E01082EEE4F0E010824B
:1041A000AFE4B0E0EFE4F0E0808182608C93AEE4B5
:1041B000B0E0EEE4F0E0808188608C93AEE4B0E0A3
:1041C000EEE4F0E0808180618C93AEE4B0E0EEE458
:1041D000F0E0808182608C93E6E4F0E080ED97E08F
:1041E00091838083EAE4F0E088EE93E0918380831A
:1041F000E8E4F0E088EE93E091838083CF91DF9153
:1042000008950F931F93DF93CF93CDB7DEB7CF58A9
:10421000D0400FB6F894DEBF0FBECDBF0E94CF1DB9
:104220000E94DC090E942B1F81E00E94F92782E096
:104230000E94F9270E94A41F0E94CB1F81E00E94C8
:10424000342882E00E94342880E690E00E94FE1E1E
:10425000FE01E757FF4F80E090E0AAEFB4E48083CF
:104260009183A283B3838E010B571F4FFE01E75743
:10427000FF4F608171818281938120E030E04AEFBD
:1042800054E40E941F02DC01CB01F801808391837A
:10429000A283B383FE01EB57FF4F6081718182815E
:1042A000938120E030E040E85FE30E94250488230A
:1042B00044F4FE01ED57FF4F81E090E0918380834D
:1042C00064C0FE01EB57FF4F608171818281938151
:1042D00020E03FEF4FE757E40E94C50318160CF0AB
:1042E00043C0FE01E757FF4F608171818281938156
:1042F00020E030E040E251E40E941F02DC01CB01EB
:104300008E010D571F4FBC01CD010E944900DC01F9
:10431000CB01F801918380831FC0FE01EF57FF4F4F
:1043200088EC90E091838083FE01EF57FF4F8081FE
:1043300091810197F1F7FE01EF57FF4F9183808341
:10434000DE01AD57BF4FFE01ED57FF4F80819181D8
:10435000019711969C938E93FE01ED57FF4F80813C
:1043600091810097D1F627C08E010D571F4FFE0196
:10437000EB57FF4F60817181828193810E944900D8
:10438000DC01CB01F80191838083DE01A158BF4F8E
:10439000FE01ED57FF4F808191818D939C93FE012B
:1043A000E158FF4F808191810197F1F7FE01E158BB
:1043B000FF4F9183808381E00E94C5160E941D0AF1
:1043C000FE01E357FF4F8083FE01E357FF4F8081DB
:1043D000282F30E0C257DF4F39832883CE58D04092
:1043E000C257DF4F88819981CE58D04084339105E0
:1043F00009F499C2C257DF4FE881F981CE58D04005
:10440000E533F105F4F4C257DF4F28813981CE58E6
:10441000D0402233310509F400C1C257DF4F8881F3
:104420009981CE58D040833391050CF0B9C1C25761
:10443000DF4FE881F981CE58D040E133F10551F1E9
:1044400054C5C257DF4F28813981CE58D04026331A
:10445000310509F4C1C3C257DF4F88819981CE5815
:10446000D040863391050CF421C3C257DF4FE88159
:10447000F981CE58D040E733F10509F430C4C25772
:10448000DF4F28813981CE58D0402833310509F4D7
:10449000A9C42BC581E00E94C5168AE690E00E945F
:1044A000FE1EB5C00E948A1FFE01E558FF4F80E046
:1044B00090E0A0EAB0E480839183A283B3838E016D
:1044C00009581F4FFE01E558FF4F608171818281BD
:1044D000938120E030E04AEF54E40E941F02DC01A7
:1044E000CB01F80180839183A283B383FE01E95855
:1044F000FF4F608171818281938120E030E040E84C
:104500005FE30E942504882344F4FE01EB58FF4F2B
:1045100081E090E09183808364C0FE01E958FF4F01
:10452000608171818281938120E03FEF4FE757E402
:104530000E94C50318160CF043C0FE01E558FF4F5A
:10454000608171818281938120E030E040E251E41A
:104550000E941F02DC01CB018E010B581F4FBC01D2
:10456000CD010E944900DC01CB01F80191838083D9
:104570001FC0FE01ED58FF4F88EC90E091838083CF
:10458000FE01ED58FF4F808191810197F1F7FE0107
:10459000ED58FF4F91838083DE01AB58BF4FFE0182
:1045A000EB58FF4F80819181019711969C938E93D8
:1045B000FE01EB58FF4F808191810097D1F627C013
:1045C0008E010B581F4FFE01E958FF4F608171812A
:1045D000828193810E944900DC01CB01F801918323
:1045E0008083DE01AF58BF4FFE01EB58FF4F808143
:1045F00091818D939C93FE01EF58FF4F80819181B3
:104600000197F1F7FE01EF58FF4F918380830E94DD
:104610001D0A813309F446CF79C481E00E94C51692
:1046200087E790E00E94FE1EB5C00E94971FFE0122
:10463000E359FF4F80E090E0A0EAB0E480839183EB
:10464000A283B3838E0107591F4FFE01E359FF4F29
:10465000608171818281938120E030E04AEF54E4EF
:104660000E941F02DC01CB01F80180839183A283A9
:10467000B383FE01E759FF4F60817181828193818D
:1046800020E030E040E85FE30E942504882344F402
:10469000FE01E959FF4F81E090E09183808364C07F
:1046A000FE01E759FF4F608171818281938120E093
:1046B0003FEF4FE757E40E94C50318160CF043C0C4
:1046C000FE01E359FF4F608171818281938120E077
:1046D00030E040E251E40E941F02DC01CB018E0178
:1046E00009591F4FBC01CD010E944900DC01CB01DB
:1046F000F801918380831FC0FE01EB59FF4F88ECC6
:1047000090E091838083FE01EB59FF4F808191817E
:104710000197F1F7FE01EB59FF4F91838083DE0192
:10472000A959BF4FFE01E959FF4F8081918101973F
:1047300011969C938E93FE01E959FF4F80819181E0
:104740000097D1F627C08E0109591F4FFE01E75986
:10475000FF4F60817181828193810E944900DC0159
:10476000CB01F80191838083DE01AD59BF4FFE017B
:10477000E959FF4F808191818D939C93FE01ED5902
:10478000FF4F808191810197F1F7FE01ED59FF4FB5
:10479000918380830E941D0A823309F446CFB6C3F9
:1047A00081E00E94C51680E890E00E94FE1EB5C020
:1047B0000E94B11FFE01E15AFF4F80E090E0A0EAA5
:1047C000B0E480839183A283B3838E01055A1F4F87
:1047D000FE01E15AFF4F608171818281938120E067
:1047E00030E04AEF54E40E941F02DC01CB01F801E3
:1047F00080839183A283B383FE01E55AFF4F6081DA
:1048000071818281938120E030E040E85FE30E9483
:104810002504882344F4FE01E75AFF4F81E090E02D
:104820009183808364C0FE01E55AFF4F60817181EE
:104830008281938120E03FEF4FE757E40E94C50358
:1048400018160CF043C0FE01E15AFF4F60817181E0
:104850008281938120E030E040E251E40E941F0217
:10486000DC01CB018E01075A1F4FBC01CD010E9414
:104870004900DC01CB01F801918380831FC0FE0158
:10488000E95AFF4F88EC90E091838083FE01E95A5A
:10489000FF4F808191810197F1F7FE01E95AFF4FA7
:1048A00091838083DE01A75ABF4FFE01E75AFF4F75
:1048B00080819181019711969C938E93FE01E75A16
:1048C000FF4F808191810097D1F627C08E01075A52
:1048D0001F4FFE01E55AFF4F6081718182819381F4
:1048E0000E944900DC01CB01F80191838083DE0145
:1048F000AB5ABF4FFE01E75AFF4F808191818D93E4
:104900009C93FE01EB5AFF4F808191810197F1F753
:10491000FE01EB5AFF4F918380830E941D0A83336F
:1049200009F446CFF3C281E00E94C5168DE890E0FD
:104930000E94FE1EB5C00E94BE1FFE01EF5AFF4F2F
:1049400080E090E0A0EAB0E480839183A283B38307
:104950008E01035B1F4FFE01EF5AFF4F6081718193
:104960008281938120E030E04AEF54E40E941F02EC
:10497000DC01CB01F80180839183A283B383FE0124
:10498000E35BFF4F608171818281938120E030E0A1
:1049900040E85FE30E942504882344F4FE01E55BC0
:1049A000FF4F81E090E09183808364C0FE01E35B70
:1049B000FF4F608171818281938120E03FEF4FE75B
:1049C00057E40E94C50318160CF043C0FE01EF5ACD
:1049D000FF4F608171818281938120E030E040E26D
:1049E00051E40E941F02DC01CB018E01055B1F4FC9
:1049F000BC01CD010E944900DC01CB01F80191838B
:104A000080831FC0FE01E75BFF4F88EC90E091833D
:104A10008083FE01E75BFF4F808191810197F1F771
:104A2000FE01E75BFF4F91838083DE01A55BBF4FF3
:104A3000FE01E55BFF4F80819181019711969C9368
:104A40008E93FE01E55BFF4F808191810097D1F647
:104A500027C08E01055B1F4FFE01E35BFF4F6081A6
:104A60007181828193810E944900DC01CB01F801B0
:104A700091838083DE01A95BBF4FFE01E55BFF4FA1
:104A8000808191818D939C93FE01E95BFF4F808132
:104A900091810197F1F7FE01E95BFF4F91838083DC
:104AA0000E941D0A843309F446CF30C281E00E947F
:104AB000C5168BE990E00E94FE1E88C081E00E942E
:104AC0006A28FE01ED5BFF4F80E090E0A0E0B0E4DB
:104AD00080839183A283B3838E01015C1F4FFE010B
:104AE000ED5BFF4F608171818281938120E030E036
:104AF0004AEF54E40E941F02DC01CB01F8018083DD
:104B00009183A283B383FE01FF96608171818281CC
:104B1000938120E030E040E85FE30E942504882391
:104B20002CF481E090E09EAF8DAF46C0FE01FF9671
:104B3000608171818281938120E03FEF4FE757E4EC
:104B40000E94C503181664F5FE01ED5BFF4F6081FE
:104B500071818281938120E030E040E251E40E9443
:104B60001F02DC01CB01BC01CD010E944900DC0128
:104B7000CB019EAF8DAF0FC088EC90E09CAF8BAFA8
:104B80008BAD9CAD0197F1F79CAF8BAF8DAD9EAD1A
:104B900001979EAF8DAF8DAD9EAD009769F716C0A2
:104BA000FE01FF9660817181828193810E9449009C
:104BB000DC01CB019EAF8DAF8DAD9EAD9AAF89AFBD
:104BC00089AD9AAD0197F1F79AAF89AF0E941D0A9E
:104BD000853309F473CF9AC181E00E94C51684EA37
:104BE00090E00E94FE1E75C081E00E94C92980E00D
:104BF00090E0A0E0B0E48DAB9EABAFABB8AF6DA9D9
:104C00007EA98FA998AD20E030E04AEF54E40E94DD
:104C10001F02DC01CB0189AB9AABABABBCAB69A982
:104C20007AA98BA99CA920E030E040E85FE30E94CC
:104C3000250488232CF481E090E098AB8FA73FC037
:104C400069A97AA98BA99CA920E03FEF4FE757E417
:104C50000E94C50318164CF56DA97EA98FA998ADC1
:104C600020E030E040E251E40E941F02DC01CB0171
:104C7000BC01CD010E944900DC01CB0198AB8FA79C
:104C80000FC088EC90E09EA78DA78DA59EA50197EB
:104C9000F1F79EA78DA78FA598A9019798AB8FA72D
:104CA0008FA598A9009769F714C069A97AA98BA95B
:104CB0009CA90E944900DC01CB0198AB8FA78FA56E
:104CC00098A99CA78BA78BA59CA50197F1F79CA7FA
:104CD0008BA70E941D0A863309F486CF17C181E095
:104CE0000E94C5168CEA90E00E94FE1E75C082E00C
:104CF0000E946A2880E090E0A0E0B0E48FA398A72B
:104D0000A9A7BAA76FA178A589A59AA520E030E048
:104D10004AEF54E40E941F02DC01CB018BA39CA349
:104D2000ADA3BEA36BA17CA18DA19EA120E030E02C
:104D300040E85FE30E94250488232CF481E090E0A2
:104D40009AA389A33FC06BA17CA18DA19EA120E065
:104D50003FEF4FE757E40E94C50318164CF56FA1CB
:104D600078A589A59AA520E030E040E251E40E94B0
:104D70001F02DC01CB01BC01CD010E944900DC0116
:104D8000CB019AA389A30FC088EC90E098A38F8FE2
:104D90008F8D98A10197F1F798A38F8F89A19AA180
:104DA00001979AA389A389A19AA1009769F714C0D2
:104DB0006BA17CA18DA19EA10E944900DC01CB01C9
:104DC0009AA389A389A19AA19E8F8D8F8D8D9E8D87
:104DD0000197F1F79E8F8D8F0E941D0A873309F48A
:104DE00086CF94C081E00E94C51681EB90E00E94BE
:104DF000FE1E75C082E00E94C92980E090E0A0E01C
:104E0000B0E4898F9A8FAB8FBC8F698D7A8D8B8D33
:104E10009C8D20E030E04AEF54E40E941F02DC0148
:104E2000CB018D8B9E8BAF8BB88F6D897E898F89DF
:104E3000988D20E030E040E85FE30E94250488235D
:104E40002CF481E090E09C8B8B8B3FC06D897E8938
:104E50008F89988D20E03FEF4FE757E40E94C5030C
:104E600018164CF5698D7A8D8B8D9C8D20E030E085
:104E700040E251E40E941F02DC01CB01BC01CD01E4
:104E80000E944900DC01CB019C8B8B8B0FC088EC0E
:104E900090E09A8B898B89899A890197F1F79A8B8F
:104EA000898B8B899C8901979C8B8B8B8B899C89A7
:104EB000009769F714C06D897E898F89988D0E944B
:104EC0004900DC01CB019C8B8B8B8B899C89988B57
:104ED0008F878F8598890197F1F7988B8F870E942C
:104EE0001D0A883309F486CF11C00E94A41F0E94B6
:104EF000CB1F81E00E94342882E00E94342881E0A8
:104F00000E94C51684EB90E00E94FE1E80E090E0B7
:104F1000A8E4B2E48B879C87AD87BE876B857C85D0
:104F20008D859E8520E030E04AEF54E40E941F0208
:104F3000DC01CB018F839887A987BA876F81788539
:104F400089859A8520E030E040E85FE30E942504EF
:104F500088232CF481E090E09E838D833FC06F8195
:104F6000788589859A8520E03FEF4FE757E40E94D6
:104F7000C50318164CF56B857C858D859E8520E0D4
:104F800030E040E251E40E941F02DC01CB01BC0191
:104F9000CD010E944900DC01CB019E838D830FC0AF
:104FA00088EC90E09C838B838B819C810197F1F747
:104FB0009C838B838D819E8101979E838D838D81C0
:104FC0009E81009769F7FAC96F81788589859A85EE
:104FD0000E944900DC01CB019E838D838D819E81DF
:104FE0009A83898389819A810197F1F79A838983CA
:104FF000E5C9DF93CF930F92CDB7DEB7898389815F
:105000008130A9F480E060E041E00E94D10680E0B8
:1050100061E041E00E94D10680E062E041E00E9450
:10502000D10680E063E041E00E94D10614C080E038
:1050300064E041E00E94D10680E065E041E00E942A
:10504000D10680E066E041E00E94D10680E067E0A2
:1050500041E00E94D1068981882F90E00E94342887
:105060000F90CF91DF910895DF93CF930F92CDB73B
:10507000DEB7898389818130A9F480E060E040E077
:105080000E94470880E061E040E00E94470880E01D
:1050900062E040E00E94470880E063E040E00E9458
:1050A000470814C080E064E040E00E94470880E0C8
:1050B00065E040E00E94470880E066E040E00E9432
:1050C000470880E067E040E00E9447080F90CF91DA
:1050D000DF910895DF93CF93CDB7DEB76F970FB60B
:1050E000F894DEBF0FBECDBF8F8F8F8D813009F05A
:1050F00045C02DED30E08091FE00882F90E0880FB4
:10510000991F880F991F820F931F9E8F8D8FED8D92
:10511000FE8D80818C8F8D8D9E8DFC0131968081DE
:105120008B8F8D8D9E8DFC01329680818A8F8D8D27
:105130009E8DFC0133968081898F80E060E04C8DEC
:105140000E94470880E061E04B8D0E94470880E0A4
:1051500062E04A8D0E94470880E063E0498D0E942A
:1051600047088091FE00882F90E0019624E030E00F
:10517000B9010E943E2B8093FE0044C02DED30E02B
:105180008091FF00882F90E0880F991F880F991F4A
:10519000820F931F9E8F8D8FED8DFE8D80818C8F62
:1051A0008D8D9E8DFC01319680818B8F8D8D9E8D96
:1051B000FC01329680818A8F8D8D9E8DFC01339605
:1051C0008081898F80E064E04C8D0E94470880E0F8
:1051D00065E04B8D0E94470880E066E04A8D0E94A2
:1051E000470880E067E0498D0E9447088091FF00F2
:1051F000882F90E0019624E030E0B9010E943E2B18
:105200008093FF0080E090E0AAEFB4E48D8B9E8B4A
:10521000AF8BB88F6D897E898F89988D2BEA3AEA9A
:105220004AE250E40E941F02DC01CB01898B9A8B79
:10523000AB8BBC8B69897A898B899C8920E030E0B3
:1052400040E85FE30E94250488231CF481E0888BFA
:1052500091C069897A898B899C8920E030E04FE789
:1052600053E40E94C50318160CF07BC06D897E893B
:105270008F89988D20E030E04AE754E40E941903BA
:10528000DC01CB018C879D87AE87BF876C857D85D0
:105290008E859F8520E030E04AEF54E40E941F0293
:1052A000DC01CB0188879987AA87BB8768857985C8
:1052B0008A859B8520E030E040E85FE30E9425047A
:1052C00088232CF481E090E09F838E833FC0688523
:1052D00079858A859B8520E03FEF4FE757E40E9460
:1052E000C50318164CF56C857D858E859F8520E05D
:1052F00030E040E251E40E941F02DC01CB01BC011E
:10530000CD010E944900DC01CB019F838E830FC039
:1053100088EC90E09D838C838C819D810197F1F7CF
:105320009D838C838E819F8101979F838E838E8145
:105330009F81009769F724C0688579858A859B8558
:105340000E944900DC01CB019F838E838E819F8167
:105350009B838A838A819B810197F1F79B838A8350
:105360000FC069897A898B899C890E944900DC0178
:10537000CB01888B8889898389818A95F1F7898314
:105380006F960FB6F894DEBF0FBECDBFCF91DF9101
:105390000895DF93CF93CDB7DEB76F970FB6F8942C
:1053A000DEBF0FBECDBF8F8F8F8D813009F046C01D
:1053B0002DED30E08091FE00882F90E0880F991F3E
:1053C000880F991F820F931F9E8F8D8FED8DFE8DFD
:1053D00080818C8F8D8D9E8DFC01319680818B8F8D
:1053E0008D8D9E8DFC01329680818A8F8D8D9E8D54
:1053F000FC0133968081898F80E060E04C8D0E94B3
:10540000470880E061E04B8D0E94470880E062E041
:105410004A8D0E94470880E063E0498D0E9447085A
:105420008091FE00882321F483E08093FE004BC02E
:105430008091FE0081508093FE0045C02DED30E04C
:105440008091FF00882F90E0880F991F880F991F87
:10545000820F931F9E8F8D8FED8DFE8D80818C8F9F
:105460008D8D9E8DFC01319680818B8F8D8D9E8DD3
:10547000FC01329680818A8F8D8D9E8DFC01339642
:105480008081898F80E064E04C8D0E94470880E035
:1054900065E04B8D0E94470880E066E04A8D0E94DF
:1054A000470880E067E0498D0E9447088091FF002F
:1054B000882321F483E08093FF0005C08091FF00E2
:1054C00081508093FF0080E090E0AAEFB4E48D8BE0
:1054D0009E8BAF8BB88F6D897E898F89988D2BEAD3
:1054E0003AEA4AE250E40E941F02DC01CB01898BB8
:1054F0009A8BAB8BBC8B69897A898B899C8920E0DC
:1055000030E040E85FE30E94250488231CF481E03A
:10551000888B91C069897A898B899C8920E030E0E9
:105520004FE753E40E94C50318160CF07BC06D8949
:105530007E898F89988D20E030E04AE754E40E940C
:105540001903DC01CB018C879D87AE87BF876C85F3
:105550007D858E859F8520E030E04AEF54E40E94EF
:105560001F02DC01CB0188879987AA87BB876885E2
:1055700079858A859B8520E030E040E85FE30E94E2
:10558000250488232CF481E090E09F838E833FC024
:10559000688579858A859B8520E03FEF4FE757E452
:1055A0000E94C50318164CF56C857D858E859F85F8
:1055B00020E030E040E251E40E941F02DC01CB0118
:1055C000BC01CD010E944900DC01CB019F838E8389
:1055D0000FC088EC90E09D838C838C819D81019726
:1055E000F1F79D838C838E819F8101979F838E83AA
:1055F0008E819F81009769F724C0688579858A85A7
:105600009B850E944900DC01CB019F838E838E81A4
:105610009F819B838A838A819B810197F1F79B837A
:105620008A830FC069897A898B899C890E94490085
:10563000DC01CB01888B8889898389818A95F1F780
:1056400089836F960FB6F894DEBF0FBECDBFCF91A2
:10565000DF910895AA1BBB1B51E107C0AA1FBB1F06
:10566000A617B70710F0A61BB70B881F991F5A95EE
:10567000A9F780959095BC01CD01089597FB092E5F
:1056800007260AD077FD04D0E5DF06D000201AF403
:10569000709561957F4F0895F6F7909581959F4F8E
:1056A00008952F923F924F925F926F927F928F92C6
:1056B0009F92AF92BF92CF92DF92EF92FF920F93A1
:1056C0001F93CF93DF93CDB7DEB7CA1BDB0B0FB6AB
:1056D000F894DEBF0FBECDBF09942A883988488868
:1056E0005F846E847D848C849B84AA84B984C884FE
:1056F000DF80EE80FD800C811B81AA81B981CE0FF5
:10570000D11D0FB6F894DEBF0FBECDBFED010895D9
:04571000F894FFCF3B
:10571400507265737320312D38002041435720287F
:10572400526967687429004357284C454654290038
:105734004F70656E204772697070657200636C6F9C
:1057440073652047726970706572004241434B571C
:1057540041524400464F525741524400444F574E21
:1057640000555000416C6C2053544F500000000011
:105774000000000000000102030405060731323373
:105784004134353642373839432A30234401010045
:105794000000010100000001010100000131323369
:0E57A4004134353642373839432A3023440029
:00000001FF
